:020000040000FA
:10000000926A806A896A816A807E807C807A807840
:1000100081A828EF00F004EF00F0807E81A830EF87
:1000200000F000EF00F0807E807C81A838EF00F0C7
:1000300000EF00F0807C807A81A840EF00F000EFB4
:1000400000F0807A807881A828EF00F000EF00F0BF
:10005000002E28EF00F0022E28EF00F00DEF00F048
:10006000002E30EF00F0022E30EF00F013EF00F022
:10007000002E38EF00F0022E38EF00F01AEF00F0FB
:10008000002E40EF00F0022E40EF00F021EF00F0D4
:0200900000006E
:020000040030CA
:0100010028D6
:010003003CC0
:01000500D129
:0100060005F4
:00000001FF
